:1000000002308A00AC2A00000A108A100A11820706
:10001000313432343334343435343634373438349C
:1000200039342A34303423340A108A100A118207F2
:1000300028340C34013406344537F4327210D03091
:10004000F339F73772323A00C131E332F339A02382
:10005000F2306E3A65322010000157396F37671061
:10006000D030F339F7377232201000014537F432BF
:100070007210D030F339F73772323A004537F43224
:100080007210D030F339F73772323A0037308400CB
:100090008313000803195A280130F800F701F70B01
:1000A0004F28F80B4E284A30F700F70B55285828F0
:1000B000800B4C2808003E185F280812602808169C
:1000C000831608128312BE186728881268288816BB
:1000D0008316881283123E196F2808137028081798
:1000E000831608138312BE19772888137828881777
:1000F00083168813000083120815831608118028C0
:10010000831208118316081183120800BF01831699
:10011000081600308312081A0130BF0483168816AF
:1001200000308312881A0130F7000310F70D7708AA
:10013000BF048316081700308312081B0130F70034
:10014000F70DF70DFC30F7057708BF048316881705
:1001500000308312881B0130F700F70DF70DF70D03
:10016000F830F7057708BF043F08F8000800831649
:10017000081108108810831208108316081008163A
:1001800088160817881783128814831688100000B1
:100190008312081583160811000083128620780840
:1001A000BE0008118316081100008312081583167B
:1001B00008110000831286207808BD0008118316FC
:1001C0000811081288120813881383123E0EF700D4
:1001D000F030F70577083D04F8007808BD00BD1F32
:1001E000F3288316BF28BB08031DF8280810F92838
:1001F00008148316081000008312881083168810D4
:100200000000831208118316081183123C0EBD00F2
:100210000F30BD053D08BE005B203C080F39BD0016
:10022000BE005B200800831608128812081388138A
:100230000811081088108312081083160810831202
:1002400088108316881083120811831608110F3046
:100250008312B70046200130B2003208033C031C71
:1002600039290330BE005B200530B7004620B20AB2
:100270002D290230BE005B200530B7004620B201B8
:100280003208033C031C4D2932081420B300BB0183
:100290003308BC00B720B20A40298A110A12C92AC1
:1002A0008A110A12CA2A380B562959294030B90036
:1002B0005A29B90101303702B90739088038BA0024
:1002C000BB013A08BC00B72008003608073A0319FA
:1002D00073290B3A03197829063A03198029023A3F
:1002E000031986298B290130B700B80053219029C2
:1002F000BB010130BC00B7200230B7004620902976
:100300000130B7000230B80053219029BB011030F2
:10031000BC00B72090290130BB003608BC00B720D4
:1003200008000B08B2008B13831603178C170C14EC
:100330000000000083120C087F390319D829031329
:10034000B30003170D080313B40003170F080313BA
:10035000B5003308B6006521340803178D00031378
:10036000350803178F0083168C170C14000000004B
:1003700083120C0D0E0D7F390319D8290313B30016
:1003800003170D080313B40003170F080313B50078
:100390003308B6006521340803178D0003133508B0
:1003A00003178F008D0A03198F0A0313942903176B
:1003B0000313B21B8B170800B201A00A2008213CCE
:1003C00003185D2A23080319EC29013A0319F229BD
:1003D000033A0319F829FD29DE30831688008312B9
:1003E0008800FD29BE308316880083128800FD290D
:1003F0007E308316880083128800211C092A080891
:100400001E391E3C031D082A21102208B200A20139
:100410005C2A08081E391E3C0319572A08080239AD
:10042000031D142AB301282A08080439031D1B2AB6
:100430000130B300282A08080839031D222A023097
:10044000B300282A08081039031D282A0330B300F6
:100450003308B4000330B500F701F8013408031085
:100460003518F707F70CF80CB518F707F70CF80C68
:100470003519F707F70CF80CB519F707F70CF80C56
:10048000351AF707F70CF80CB51AF707F70CF80C44
:10049000351BF707F70CF80CB51BF707F70CF80C32
:1004A000230878070420F800A20021145C2AA30A7C
:1004B0002308033C0319A301A001FE308316880022
:1004C00083123208F8008A110A12D62A3308FA0079
:1004D0003208840083137A1883170008B6003508A1
:1004E000FA003408840083137A1883170008360250
:1004F000031D912A3308FA003208840083137A1806
:1005000083178008031D872A0030F800A92A3308C2
:10051000FA003208B20A0319B30AB40A0319B50A79
:10052000662A3308FA0032088400831333188317CD
:100530000008B6003508FA00340884008313351823
:100540008317000836020318A72AFF30A82A0130B3
:10055000F8008A110A12EB2A03081F398300B00140
:1005600083161F149F141F159F1107309C008313BF
:100570008312A0012110A201A301A401A501313021
:10058000A6003230A7003330A8003430A900AA01F9
:10059000132950290130B700B80053211C3003172C
:1005A0008D0000308F0003139121DC297808B10001
:1005B000B1080319392B3108233C031D192B2B30AB
:1005C0003007840083138001B3012B30B200B501E2
:1005D0002630B400662AF808031DFA2A0130B70055
:1005E000B8005321243003178D0000308F0003130F
:1005F0009121172B0130B700B80053212D3003177C
:100600008D0000308F00031391210830B200FA30C2
:10061000B7004620B20B072B0130B700B8005321BA
:10062000363003178D0000308F0003139121B00185
:10063000392B31082A3C031D2A2BB0010130B700A9
:10064000B80053213E3003178D0000308F00031394
:100650009121392B2B30300784008313310880001F
:10066000B00A0230B7003008B80053212A30B60073
:060670006521D52A63009C
:02400E00313F40
:00000001FF
;PIC16F877A
;CRC=CF9E  CREATED="18-Oct-24 21:51"
